S00F0000494D555F765F312E73726563C5
S113000049C0000064C0000062C0000060C000007D
S11300105EC000005CC000005AC0000058C0000070
S113002056C0000054C0000052C0000050C0000080
S1130030DFC000004CC000004AC0000048C00000FF
S113004046C0000044C0000042C0000040C00000A0
S11300503EC000003CC000003AC0000038C00000B0
S113006036C0000034C0000032C0000030C00000C0
S11300702EC000002CC000002AC0000028C00000D0
S113008026C0000024C0000022C0000020C00000E0
S11300901EC0000011241FBECFEFD0E1DEBFCDBFD4
S11300A021E0A6E0B1E001C01D92A634B207E1F759
S11300B011E0A0E0B1E0E0E2F3E000E00BBF02C039
S11300C007900D92A630B107D9F724D027C198CF55
S11300D0ECE7F0E09081907F90839081892B80837E
S11300E0EAE7F0E0808180648083808186FDFDCF33
S11300F02091780030917900822F932F0895909366
S1130100CD008093CC0086E08093CA0088E9809378
S1130110C900089581E090E0F2DF95D0ABD07894E7
S11301201092060180E0D4DF90931C0180931B01A0
S113013020910601211111C04AE050E068E071E00D
S1130140AAD0E8E0F1E001900020E9F73197E85007
S1130150F140F0933201E093310180910601813046
S1130160A9F44AE050E065E371E080911B019091AD
S11301701C0191D0E5E3F1E001900020E9F731970B
S1130180E553F140F0933001E0932F018091060193
S11301908230E9F44AE050E06EE171E080911B01A5
S11301A090911C0178D0EEE1F1E001900020E9F794
S11301B03197EE51F140F0933401E0933301809193
S11301C01B0190911C019093190180930701809168
S11301D006018F5F80930601833008F0A1CFA3CF7F
S11301E0E8ECF0E0908195FFFDCF8093CE00089578
S11301F01F920F920FB60F9211240BB60F922F93EA
S11302003F934F935F936F937F938F939F93AF939A
S1130210BF93EF93FF9380910701E2DF8AE0E0DF71
S1130220FF91EF91BF91AF919F918F917F916F91CA
S11302305F914F913F912F910F900BBE0F900FBE86
S11302400F901F901895ECE7F0E080818F77808302
S113025080818064808380818F7D8083EAE7F0E001
S113026080818660808380818068808380818064CF
S113027080830895E1E8F0E080818A608083EFE67E
S1130280F0E08081826080838FE097E29093890020
S1130290809388000895FB019F01E8944230BCF0EC
S11302A04532ACF44A3029F497FB1EF490958195BD
S11302B09F4F642F77271ED0805D8A330CF0895DB1
S11302C08193CB010097A9F716F45DE25193108254
S11302D0C90100C0DC01FC01672F71917723E1F7AC
S11302E0329704C07C916D9370836291AE17BF07FF
S11302F0C8F30895AA1BBB1B51E107C0AA1FBB1F6B
S1130300A617B70710F0A61BB70B881F991F5A959D
S1130310A9F780959095BC01CD010895F894FFCF7D
S10903200000460120006C
S9030000FC
