S00F0000494D555F765F312E73726563C5
S113000049C0000064C0000062C0000060C000007D
S11300105EC000005CC000005AC0000058C0000070
S113002056C0000054C0000052C0000050C0000080
S113003001C100004CC000004AC0000048C00000DC
S113004046C0000044C0000042C0000040C00000A0
S11300503EC000003CC000003AC0000038C00000B0
S113006036C0000034C0000032C0000030C00000C0
S11300702EC000002CC000002AC0000028C00000D0
S113008026C0000024C0000022C0000020C00000E0
S11300901EC0000011241FBECFEFD0E1DEBFCDBFD4
S11300A021E0A6E0B1E001C01D92AA31B207E1F758
S11300B011E0A0E0B1E0E6E6F3E000E00BBF02C02F
S11300C007900D92A630B107D9F702D04AC198CF54
S11300D080E090E0D0D0B8D0E1D02FEF80E792E07C
S11300E0215080409040E1F700C0000041E050E022
S11300F063E070E080E090E2E0D0609311017093DF
S1130100120180931301909314012FE788E391E087
S1130110215080409040E1F700C0000041E050E0F1
S113012060E070E080E090E2C8D0609311017093C9
S1130130120180931301909314012FE788E391E057
S1130140215080409040E1F700C0000041E050E0C1
S113015060E070E080E090E2B0D0609311017093B1
S11301601201809313019093140187EC90E001979E
S1130170F1F700C0000041E050E060E070E080E092
S113018090E29BD06093110170931201809313014C
S11301909093140187EC90E00197F1F700C0000000
S11301A07894C1E1D1E080E071D080E06FD080E04C
S11301B06DD080E06BD09FEF24E38CE09150204021
S11301C08040E1F700C0000041E050E060E070E0F2
S11301D080E090E272D060931101709312018093D9
S11301E013019093140187EC90E00197F1F700C09C
S11301F0000041E050E060E070E080E090E25DD01B
S11302006093110170931201809313019093140170
S113021087EC90E00197F1F700C000008091140191
S113022035D08091130132D0809112012FD0888172
S11302302DD0B9CF1F920F920FB60F9211240F90A9
S11302400FBE0F901F901895ECE7F0E080818F7738
S1130250808380818064808380818F7D8083EAE7CE
S1130260F0E08081866080838081806880838081E3
S11302708064808308959093CD008093CC0086E0C1
S11302808093CA0088E08093C9000895E8ECF0E008
S1130290908195FFFDCF8093CE00089586E784B9C1
S11302A080E58CBD81E08DBD85B1806785B90895F9
S11302B08EBD0DB407FEFDCF0895AF92BF92CF92CD
S11302C0DF92EF92FF920F931F93CF93DF93A62EAB
S11302D0B72E182F892FEA0128984130510511F4BF
S11302E02C9809C04230510511F42D9804C04330B4
S11302F0510509F42E98DCDFCEB4D12CE12CF12C7D
S1130300FC2CEE24DD24CC24812FD2DF1EB58B2DD2
S1130310CFDFBEB48A2DCCDF8EB5B701A601612B29
S11303208A019B01082B1B29C130D10511F42C9A99
S113033008C0C230D10511F42D9A03C0239709F4E3
S11303402E9A289A602F712F822F932FDF91CF91AD
S11303501F910F91FF90EF90DF90CF90BF90AF90DF
S10903600895F894FFCF9C
S109036600001A01200052
S9030000FC
