S00F0000494D555F765F312E73726563C5
S113000049C0000064C0000062C0000060C000007D
S11300105EC000005CC000005AC0000058C0000070
S113002056C0000054C0000052C0000050C0000080
S113003069C000004CC000004AC0000048C0000075
S113004046C0000044C0000042C0000040C00000A0
S11300503EC000003CC000003AC0000038C00000B0
S113006036C0000034C0000032C0000030C00000C0
S11300702EC000002CC000002AC0000028C00000D0
S113008026C0000024C0000022C0000020C00000E0
S11300901EC0000011241FBECFEFD0E1DEBFCDBFD4
S11300A021E0A6E0B1E001C01D92A730B207E1F75C
S11300B011E0A0E0B1E0E4EBF1E000E00BBF02C02E
S11300C007900D92A630B107D9F70DD071C098CF23
S11300D09093CD008093CC0086E08093CA0088E999
S11300E08093C900089580E090E0F2DF39D04FD0CA
S11300F07894FFCFE8ECF0E0908195FFFDCF8093FA
S1130100CE0008951F920F920FB60F9211240BB6D2
S11301100F922F933F934F935F936F937F938F939C
S11301209F93AF93BF93EF93FF9380910601E2DF18
S1130130809106018F5F80930601FF91EF91BF913B
S1130140AF919F918F917F916F915F914F913F916B
S11301502F910F900BBE0F900FBE0F901F9018950C
S1130160ECE7F0E080818F778083808180648083F6
S113017080818F7D8083EAE7F0E0808186608083E0
S11301808081806880838081806480830895E1E831
S1130190F0E080818A608083EFE6F0E08081826015
S11301A080838FE097E2909389008093880008957C
S10701B0F894FFCFED
S10901B400000701200019
S9030000FC
