S00F0000494D555F765F312E73726563C5
S113000049C0000064C0000062C0000060C000007D
S11300105EC000005CC000005AC0000058C0000070
S113002056C0000054C0000052C0000050C0000080
S1130030EBC000004CC000004AC0000048C00000F3
S113004046C0000044C0000042C0000040C00000A0
S11300503EC000003CC000003AC0000038C00000B0
S113006036C0000034C0000032C0000030C00000C0
S11300702EC000002CC000002AC0000028C00000D0
S113008026C0000024C0000022C0000020C00000E0
S11300901EC0000011241FBECFEFD0E1DEBFCDBFD4
S11300A011E0A0E0B1E0E4E6F3E000E00BBF02C041
S11300B007900D92A830B107D9F721E0A8E0B1E08C
S11300C001C01D92A434B207E1F724D049C198CFEE
S11300D0ECE7F0E09081907F90839081892B80837E
S11300E0EAE7F0E0808180648083808186FDFDCF33
S11300F02091780030917900822F932F0895909366
S1130100CD008093CC0086E08093CA0088E9809378
S1130110C900089581E090E0F2DFB7D0CDD07894A3
S11301201092080180E0D4DF90931B0180931A01A0
S113013020910801211111C04AE050E069E071E00A
S1130140CCD0E9E0F1E001900020E9F73197E950E3
S1130150F140F0933001E0932F0180910801813048
S1130160A9F44AE050E063E371E080911A019091B0
S11301701B01B3D0E3E3F1E001900020E9F73197EC
S1130180E353F140F0932E01E0932D018091080197
S11301908230A9F44AE050E06CE171E080911A01E8
S11301A090911B019AD0ECE1F1E001900020E9F775
S11301B03197EC51F140F0933201E0933101809199
S11301C008018F5F80930801833008F0A9CFABCF7B
S11301D0E8ECF0E0908195FFFDCF8093CE00089588
S11301E00F931F93CF93DF93EC01662341F08C01AF
S11301F0060F111D8991ECDFC017D107D9F7DF91E4
S1130200CF911F910F9108951F920F920FB60F92E5
S113021011240BB60F922F933F934F935F936F93D9
S11302207F938F939F93AF93BF93EF93FF936091CB
S11302302F0189E091E0D4DF61E086E091E0D0DF36
S113024060912D0183E391E0CBDF61E086E091E0F2
S1130250C7DF609131018CE191E0C2DF8DE0B8DF4E
S11302608AE0B6DFFF91EF91BF91AF919F918F919B
S11302707F916F915F914F913F912F910F900BBEA2
S11302800F900FBE0F901F901895ECE7F0E080815F
S11302908F77808380818064808380818F7D808359
S11302A0EAE7F0E0808186608083808180688083D3
S11302B08081806480830895E1E8F0E080818A6031
S11302C08083EFE6F0E08081826080838FE097E2B4
S11302D090938900809388000895FB019F01E8941E
S11302E04230BCF04532ACF44A3029F497FB1EF49A
S11302F0909581959F4F642F77271ED0805D8A3318
S11303000CF0895D8193CB010097A9F716F45DE2A7
S113031051931082C90100C0DC01FC01672F719167
S11303207723E1F7329704C07C916D9370836291D7
S1130330AE17BF07C8F30895AA1BBB1B51E107C042
S1130340AA1FBB1FA617B70710F0A61BB70B881F61
S1130350991F5A95A9F780959095BC01CD010895F0
S1070360F894FFCF3B
S10B0364000044012000200008
S9030000FC
