:1000000049C0000064C0000062C0000060C0000081
:100010005EC000005CC000005AC0000058C0000074
:1000200056C0000054C0000052C0000050C0000084
:100030004EC000004CC000004AC0000048C0000094
:1000400046C0000044C0000042C0000040C00000A4
:100050003EC000003CC000003AC0000038C00000B4
:1000600036C0000034C0000032C0000030C00000C4
:100070002EC000002CC000002AC0000028C00000D4
:1000800026C0000024C0000022C0000020C00000E4
:100090001EC0000011241FBECFEFD0E1DEBFCDBFD8
:1000A00011E0A0E0B1E0EEEAF2E000E00BBF02C038
:1000B00007900D92AE31B107D9F721E0AEE1B1E082
:1000C00001C01D92A132B207E1F740D0EEC098CF37
:1000D000ECE7F0E09081907F90839081892B808382
:1000E000EAE7F0E0808180648083808186FDFDCF37
:1000F0002091780030917900822F932F089590936A
:10010000CD008093CC0086E08093CA0088E980937C
:10011000C9000895E8ECF0E0908195FFFDCF809351
:10012000CE0008950F931F93CF93DF93EC016623C6
:1001300041F08C01060F111D8991ECDFC017D1072A
:10014000D9F7DF91CF911F910F910895CF93DF934E
:10015000CDB7DEB761970FB6F894DEBF0FBECDBF47
:1001600089E190E0CCDF47D08E010F5F1F4FE02E7A
:10017000F12E10921E0180E0ABDF9093200180935E
:100180001F0160E186E091E0CDDF80911E01805D7E
:10019000C1DF63E087E191E0C5DF4AE050E06E2D0A
:1001A0007F2D80911F01909120013CD0F80101909A
:1001B0000020E9F73197BF01601B710B8E2D9F2D39
:1001C000B1DF62E08BE191E0ADDF2FEF84E39CE0F3
:1001D000215080409040E1F700C0000080911E0156
:1001E0008F5F80931E01833008F4C6CF8DE092DFCD
:1001F0008AE090DFBECFECE7F0E080818F778083EC
:1002000080818064808380818F7D8083EAE7F0E055
:100210008081866080838081806880838081806423
:1002200080830895FB019F01E8944230BCF0453281
:10023000ACF44A3029F497FB1EF4909581959F4FBA
:10024000642F77271ED0805D8A330CF0895D8193FF
:10025000CB010097A9F716F45DE251931082C90112
:1002600000C0DC01FC01672F71917723E1F7329721
:1002700004C07C916D9370836291AE17BF07C8F381
:100280000895AA1BBB1B51E107C0AA1FBB1FA617DD
:10029000B70710F0A61BB70B881F991F5A95A9F72F
:0E02A00080959095BC01CD010895F894FFCF94
:1002AE0000002101200052656164696E6720636859
:0E02BE00616E6E656C2000203A20002020004A
:00000001FF
