S00F0000494D555F765F312E73726563C5
S113000049C0000064C0000062C0000060C000007D
S11300105EC000005CC000005AC0000058C0000070
S113002056C0000054C0000052C0000050C0000080
S11300304DC200004CC000004AC0000048C000008F
S113004046C0000044C0000042C0000040C00000A0
S11300503EC000003CC000003AC0000038C00000B0
S113006036C0000034C0000032C0000030C00000C0
S11300702EC000002CC000002AC0000028C00000D0
S113008026C0000024C0000022C0000020C00000E0
S11300901EC0000011241FBECFEFD0E1DEBFCDBFD4
S11300A021E0A6E0B1E001C01D92AA31B207E1F758
S11300B011E0A0E0B1E0ECE2F6E000E00BBF02C02A
S11300C007900D92A630B107D9F702D0ADC298CFF0
S11300D080E090E01CD204D244D22FEF80E792E07B
S11300E0215080409040E1F700C0000041E050E022
S11300F063E070E080E090E243D26093110170937A
S113010012018093130190931401EFE7F8E321E0C7
S1130110E150F0402040E1F700C0000041E050E031
S113012060E070E080E090E22BD260931101709364
S1130130120180931301909314018FE798E3E1E097
S113014081509040E040E1F700C0000041E050E001
S113015060E070E080E090E213D26093110170934C
S11301601201809313019093140187EC90E001979E
S1130170F1F700C0000041E050E060E070E080E092
S113018090E2FED1609311017093120180931301E8
S113019090931401E7ECF0E03197F1F700C0000010
S11301A042E050E063E070E080E090E2E9D16093E7
S11301B0090170930A0180930B0190930C01FFE7EE
S11301C028E381E0F15020408040E1F700C00000C6
S11301D042E050E060E070E080E090E2D1D16093D2
S11301E0090170930A0180930B0190930C019FE71E
S11301F0E8E3F1E09150E040F040E1F700C0000096
S113020042E050E060E070E080E090E2B9D16093B9
S1130210090170930A0180930B0190930C0187EC00
S113022090E00197F1F700C0000042E050E060E088
S113023070E080E090E2A4D16093090170930A0118
S113024080930B0190930C01E7ECF0E03197F1F708
S113025000C0000043E050E063E070E080E090E222
S11302608FD16093160170931701809318019093B6
S11302701901FFE728E381E0F15020408040E1F7D5
S113028000C0000043E050E060E070E080E090E2F5
S113029077D160931601709317018093180190939E
S11302A019019FE7E8E3F1E09150E040F040E1F705
S11302B000C0000043E050E060E070E080E090E2C5
S11302C05FD1609316017093170180931801909386
S11302D0190187EC90E00197F1F700C0000043E0BA
S11302E050E060E070E080E090E24AD16093160153
S11302F0709317018093180190931901E7ECF0E0D3
S11303003197F1F700C0000078940F2EF9E0EF2E3A
S1130310F1E0FF2EF02D06E111E0C1E1D1E080E033
S113032001D180E0FFD080E0FDD080E0FBD042E04E
S113033050E060E070E080E090E222D16093090137
S113034070930A0180930B0190930C0187EC90E069
S11303500197F1F700C0000042E050E060E070E077
S113036080E090E20DD16093090170930A018093BB
S11303700B0190930C01E7ECF0E03197F1F700C02A
S1130380000080910C01CED080910B01CBD08091E4
S11303900A01C8D0F7018081C5D043E050E060E095
S11303A070E080E090E2ECD0609316017093170146
S11303B0809318019093190187EC90E00197F1F76D
S11303C000C0000043E050E060E070E080E090E2B4
S11303D0D7D06093160170931701809318019093FE
S11303E01901E7ECF0E03197F1F700C000008091CB
S11303F0190198D08091180195D08091170192D05D
S1130400F80180818FD041E050E060E070E080E04E
S113041090E2B6D06093110170931201809313019E
S11304209093140187EC90E00197F1F700C000006D
S113043041E050E060E070E080E090E2A1D06093A1
S11304401101709312018093130190931401E7EC4E
S1130450F0E03197F1F700C000008091140162D000
S1130460809113015FD0809112015CD088815AD0B1
S113047082E060D080930F019093100190930E015D
S113048080930801892F4ED0809108014BD081E0E0
S113049051D080930F019093100190931501809394
S11304A00601892F3FD0809106013CD080E042D0E4
S11304B080930F01909310019093070180930D0195
S11304C0892F30D080910D012DD029CF1F920F920A
S11304D00FB60F9211240F900FBE0F901F90189516
S11304E0ECE7F0E080818F77808380818064808373
S11304F080818F7D8083EAE7F0E08081866080835D
S11305008081806880838081806480830895909353
S1130510CD008093CC0086E08093CA0088E080936D
S1130520C9000895E8ECF0E0908195FFFDCF809339
S1130530CE000895ECE7F0E09081907F9083908165
S1130540892B8083EAE7F0E0808180648083808166
S113055086FDFDCF2091780030917900822F932F72
S1130560089586E784B980E58CBD81E08DBD85B1B1
S1130570806785B908958EBD0DB407FEFDCF08953B
S1130580AF92BF92CF92DF92EF92FF920F931F939D
S1130590CF93DF93A62EB72E182F892FEA01289820
S11305A04130510511F42C9809C04230510511F421
S11305B02D9804C04330510509F42E98DCDFCEB4E5
S11305C0D12CE12CF12CFC2CEE24DD24CC24812F25
S11305D0D2DF1EB58B2DCFDFBEB48A2DCCDF8EB516
S11305E0B701A601612B8A019B01082B1B29C1308D
S11305F0D10511F42C9A08C0C230D10511F42D9AFA
S113060003C0239709F42E9A289A602F712F822F02
S1130610932FDF91CF911F910F91FF90EF90DF9077
S10F0620CF90BF90AF900895F894FFCFE6
S109062C00001A01200089
S9030000FC
