S00F0000494D555F765F312E73726563C5
S113000049C0000064C0000062C0000060C000007D
S11300105EC000005CC000005AC0000058C0000070
S113002056C0000054C0000052C0000050C0000080
S1130030EBC000004CC000004AC0000048C00000F3
S113004046C0000044C0000042C0000040C00000A0
S11300503EC000003CC000003AC0000038C00000B0
S113006036C0000034C0000032C0000030C00000C0
S11300702EC000002CC000002AC0000028C00000D0
S113008026C0000024C0000022C0000020C00000E0
S11300901EC0000011241FBECFEFD0E1DEBFCDBFD4
S11300A011E0A0E0B1E0E8E5F3E000E00BBF02C03E
S11300B007900D92AE31B107D9F721E0AEE1B1E07E
S11300C001C01D92AA35B207E1F724D043C198CFED
S11300D0ECE7F0E09081907F90839081892B80837E
S11300E0EAE7F0E0808180648083808186FDFDCF33
S11300F02091780030917900822F932F0895909366
S1130100CD008093CC0086E08093CA0088E9809378
S1130110C900089589E190E0F2DFB1D0C7D07894A6
S113012010921E0180E0D4DF90933101809330015E
S113013020911E01211111C04AE050E06FE171E0ED
S1130140C6D0EFE1F1E001900020E9F73197EF51DB
S1130150F140F0934601E093450180911E01813006
S1130160A9F44AE050E069E471E080913001909193
S11301703101ADD0E9E4F1E001900020E9F73197D5
S1130180E954F140F0934401E093430180911E014E
S11301908230A9F44AE050E062E371E080913001DA
S11301A09091310194D0E2E3F1E001900020E9F76D
S11301B03197E253F140F0934801E0934701809175
S11301C01E018F5F80931E01833008F0A9CFABCF4F
S11301D0E8ECF0E0908195FFFDCF8093CE00089588
S11301E00F931F93CF93DF93EC01662341F08C01AF
S11301F0060F111D8991ECDFC017D107D9F7DF91E4
S1130200CF911F910F9108951F920F920FB60F92E5
S113021011240BB60F922F933F934F935F936F93D9
S11302207F938F939F93AF93BF93EF93FF9360E17B
S113023086E091E0D5DF61E087E191E0D1DF63E022
S113024089E191E0CDDF609145018FE191E0C8DF64
S11302508DE0BEDF8AE0BCDFFF91EF91BF91AF91EB
S11302609F918F917F916F915F914F913F912F91CA
S11302700F900BBE0F900FBE0F901F901895ECE7D8
S1130280F0E080818F7780838081806480838081A7
S11302908F7D8083EAE7F0E08081866080838081BF
S11302A0806880838081806480830895E1E8F0E041
S11302B080818D608083EFE6F0E0808182608083BE
S11302C08CE093E090938900809388000895FB016B
S11302D09F01E8944230BCF04532ACF44A3029F432
S11302E097FB1EF4909581959F4F642F77271ED01E
S11302F0805D8A330CF0895D8193CB010097A9F767
S113030016F45DE251931082C90100C0DC01FC01C6
S1130310672F71917723E1F7329704C07C916D9335
S113032070836291AE17BF07C8F30895AA1BBB1B65
S113033051E107C0AA1FBB1FA617B70710F0A61BE1
S1130340B70B881F991F5A95A9F780959095BC0102
S10B0350CD010895F894FFCFDC
S113035800005A01200052656164696E6720636871
S1110368616E6E656C20007A00203A20000061
S9030000FC
