:1000000049C0000064C0000062C0000060C0000081
:100010005EC000005CC000005AC0000058C0000074
:1000200056C0000054C0000052C0000050C0000084
:100030006EC100004CC000004AC0000048C0000073
:1000400046C0000044C0000042C0000040C00000A4
:100050003EC000003CC000003AC0000038C00000B4
:1000600036C0000034C0000032C0000030C00000C4
:100070002EC000002CC000002AC0000028C00000D4
:1000800026C0000024C0000022C0000020C00000E4
:100090001EC0000011241FBECFEFD0E1DEBFCDBFD8
:1000A00021E0A6E0B1E001C01D92AA31B207E1F75C
:1000B00011E0A0E0B1E0EEECF5E000E00BBF02C023
:1000C00007900D92A630B107D9F702D07EC298CF23
:1000D00080E090E0EDD1C4D1DAD114D22FEF80E7E7
:1000E00092E0215080409040E1F700C0000041E0E4
:1000F00050E063E070E080E090E213D26093110181
:100100007093120180931301909314012FE788E3F9
:1001100091E0215080409040E1F700C0000041E0B4
:1001200050E060E070E080E090E2FBD1609311016C
:100130007093120180931301909314012FE788E3C9
:1001400091E0215080409040E1F700C0000041E084
:1001500050E060E070E080E090E2E3D16093110154
:1001600070931201809313019093140187EC90E037
:100170000197F1F700C0000041E050E060E070E05E
:1001800080E090E2CED160931101709312018093D0
:1001900013019093140187EC90E00197F1F700C0F0
:1001A000000042E050E063E070E080E090E2B9D10E
:1001B0006093090170930A0180930B0190930C01E5
:1001C0009FE728E381E0915020408040E1F700C0A4
:1001D000000042E050E060E070E080E090E2A1D1F9
:1001E0006093090170930A0180930B0190930C01B5
:1001F0009FE728E381E0915020408040E1F700C074
:10020000000042E050E060E070E080E090E289D1E0
:100210006093090170930A0180930B0190930C0184
:1002200087EC90E00197F1F700C0000042E050E059
:1002300060E070E080E090E274D160930901709317
:100240000A0180930B0190930C0187EC90E00197D9
:10025000F1F700C0000043E050E063E070E080E0B0
:1002600090E25FD16093160170931701809318019B
:10027000909319019FE728E381E09150204080404E
:10028000E1F700C0000043E050E060E070E080E093
:1002900090E247D160931601709317018093180183
:1002A000909319019FE728E381E09150204080401E
:1002B000E1F700C0000043E050E060E070E080E063
:1002C00090E22FD16093160170931701809318016B
:1002D0009093190187EC90E00197F1F700C00000BE
:1002E00043E050E060E070E080E090E21AD160937B
:1002F000160170931701809318019093190187ECF0
:1003000090E00197F1F700C000007894FFCF1F92B2
:100310000F920FB60F9211240BB60F922F933F93AB
:100320004F935F936F937F938F939F93AF93BF93FD
:10033000EF93FF9380E0C7D080E0C5D080E0C3D0CA
:1003400080E0C1D043E050E060E070E080E090E207
:10035000E8D06093090170930A0180930B01909398
:100360000C01892FB0D080910B01ADD080910A0192
:10037000AAD080910901A7D042E050E060E070E08F
:1003800080E090E2CED060931601709317018093C5
:10039000180190931901892F96D08091180193D05C
:1003A0008091170190D0809116018DD041E050E0EE
:1003B00060E070E080E090E2B4D06093110170934F
:1003C00012018093130190931401892F7CD08091A6
:1003D000130179D08091120176D08091110173D0F0
:1003E00081E079D080930F019093100190930E01DA
:1003F00080930801892F67D08091080164D082E042
:100400006AD080930F01909310019093150180930F
:100410000601892F58D08091060155D080E05BD02D
:1004200080930F01909310019093070180930D0129
:10043000892F49D080910D0146D0FF91EF91BF9156
:10044000AF919F918F917F916F915F914F913F916C
:100450002F910F900BBE0F900FBE0F901F9018950D
:10046000ECE7F0E080818F778083808180648083F7
:1004700080818F7D8083EAE7F0E0808186608083E1
:100480008081806880838081806480830895E1E832
:10049000F0E080818A608083EFE6F0E08081826016
:1004A00080838FE097E2909389008093880008957D
:1004B0009093CD008093CC0086E08093CA0088E0C2
:1004C0008093C9000895E8ECF0E0908195FFFDCF9E
:1004D0008093CE000895ECE7F0E09081907F9083C8
:1004E0009081892B8083EAE7F0E0808180648083BB
:1004F000808186FDFDCF2091780030917900822F98
:10050000932F089586E784B980E58CBD81E08DBD89
:1005100085B1806785B908958EBD0DB407FEFDCF06
:100520000895AF92BF92CF92DF92EF92FF920F9316
:100530001F93CF93DF93A62EB72E182F892FEA0192
:1005400028984130510511F42C9809C042305105CA
:1005500011F42D9804C04330510509F42E98DCDFC6
:10056000CEB4D12CE12CF12CFC2CEE24DD24CC24B7
:10057000812FD2DF1EB58B2DCFDFBEB48A2DCCDF0D
:100580008EB5B701A601612B8A019B01082B1B299F
:10059000C130D10511F42C9A08C0C230D10511F434
:1005A0002D9A03C0239709F42E9A289A602F712F51
:1005B000822F932FDF91CF911F910F91FF90EF909A
:0E05C000DF90CF90BF90AF900895F894FFCFDA
:0605CE0000001A012000EC
:00000001FF
