:020000021000EC
:10E000000C944AF00C9469F00C9469F00C9469F04B
:10E010000C9469F00C9469F00C9469F00C9469F01C
:10E020000C9469F00C9469F00C9469F00C9469F00C
:10E030000C9469F00C9469F00C9469F00C9469F0FC
:10E040000C9469F00C9469F00C9469F00C9469F0EC
:10E050000C9469F00C9469F00C9469F00C9469F0DC
:10E060000C9469F00C9469F00C9469F00C9469F0CC
:10E070000C9469F00C9469F00C9469F00C9469F0BC
:10E080000C9469F00C9469F00C9469F00C9469F0AC
:10E090000C9469F011241FBECFEFD0E1DEBFCDBFDD
:10E0A00011E0A0E0B1E0E8E4F8EE01E00BBF02C04F
:10E0B00007900D92A230B107D9F712E0A2E0B1E0CB
:10E0C00001C01D92A339B107E1F70E9471F00C94D1
:10E0D00022F40C9400F08091020187B90C940000A6
:10E0E000089580E8809361001092610047B14093E9
:10E0F00002013F9886EF99E020E931E0F90131977C
:10E10000F1F70197D9F7379B03C00E941BF203C0B8
:10E1100047B90C94000080E090E008959093CD0002
:10E120008093CC0086E08093CA0088E18093C90088
:10E130000895982F8091C80085FFFCCF9093CE0062
:10E1400008958091C80087FFFCCF8091CE0008958C
:10E150006827262F2295207F2627422F50E033E084
:10E16000440F551F3A95E1F722952F7030E0242790
:10E17000352785E0440F551F8A95E1F7892F90E0F8
:10E18000482B592B24273527C9010895EF92FF9278
:10E190000F931F93CF93DF93809100019091010122
:10E1A0008059914009F041C0109201011092000184
:10E1B00086E734C00E94A1F0F80181938F018C277B
:10E1C000282F2295207F2827622F70E0562F442782
:10E1D0008D2F90E0482B592BEB0163E0CC0FDD1F16
:10E1E0006A95E1F722952F7030E0C227D327C42724
:10E1F000D527F2E003391F07E9F60E94A1F0F82EB7
:10E20000EE240E94A1F09701280F311D2C173D0725
:10E2100021F484E90E9499F008C082E50E9499F0F7
:10E2200003E011E0C0E0D0E0C5CFCDB7DEB7E6E057
:10E230000C9413F40E94C6F020910001309101016A
:10E24000F901ED5FFE4F80812F5F3F4F3093010159
:10E250002093000108950E94A1F08130E1F70E940F
:10E26000A1F0823021F40E94A1F0833019F08130B6
:10E27000A1F3F1CF81E00E9499F082E00E9499F031
:10E2800083E00E9499F00895A6E0B0E0EAE4F1EF9F
:10E290000C94EBF30E941AF1182F00E00E941AF17F
:10E2A0009801280F311D3A8329831C821B82B7C035
:10E2B0000E941AF190E0A0E0B0E0582E44243324EC
:10E2C00022240E941AF1E82E0E941AF1A82E0E9420
:10E2D0001AF1FF2400E010E08701FF24EE242E0C49
:10E2E0003F1C401E511E280E311C411C511CBB24DA
:10E2F000CC24DD24DC2CCB2CBA2CAA242A0C3B1CED
:10E300004C1C5D1C0E941AF190E0A0E0B0E0982E39
:10E310008824772466240E941AF1E82E0E941AF1BC
:10E32000A82E0E941AF1FF2400E010E08701FF24CC
:10E33000EE246E0C7F1C801E911E680E711C811CC9
:10E34000911CBB24CC24DD24DC2CCB2CBA2CAA249D
:10E350006A0C7B1C8C1C9D1CEE24FF24870154C07E
:10E3600057016801A20CB31CC41CD51CA3014E1993
:10E370005F095E834D8381E04039580758F420914E
:10E3800000013091010180E991E0821B930B841719
:10E39000950728F5809100019091010140E951E035
:10E3A000481B590B8D5F9E4FB5010E94E8F280918A
:10E3B000000190910101E0E9F1E0E81BF90BCF01C8
:10E3C000A0E0B0E0E80EF91E0A1F1B1F20E931E0B3
:10E3D00030930101209300010E94C6F015C0C901CD
:10E3E0008D5F9E4FB5014D815E810E94E8F24D81A7
:10E3F0005E815093010140930001CA01A0E0B0E0AA
:10E40000E80EF91E0A1F1B1FE614F704080519057C
:10E4100008F4A6CF8B819C8101969C838B83EB8132
:10E42000FC8129813A81E217F30708F441CF26964F
:10E43000E2E10C9407F489E190E00E948EF086EF0F
:10E4400099E020E931E0F9013197F1F70197D9F727
:10E4500081E087B988B90E942BF10E94BDF20E9429
:10E4600044F118B8FFCFA0E0B0E021E00B01FC01BF
:10E47000A0935B0020935700E895112407B600FC99
:10E48000FDCF089507B600FCFDCFA0E0B0E025E089
:10E49000FC01A0935B0020935700E89507B600FCB1
:10E4A000FDCF089507B600FCFDCFA0E0B0E023E06B
:10E4B000FC01A0935B0020935700E89507B600FC91
:10E4C000FDCF08952BB7A0E0B0E030E040E050E091
:10E4D000A90133272227822B932BA42BB52BABBF6B
:10E4E000FC0187910895EF92FF920F931F932BB732
:10E4F0007C0100E010E030E040E050E0A90133276B
:10E500002227E22AF32A042B152B0BBFF701E790F1
:10E51000F690C7011F910F91FF90EF900895CF9350
:10E52000DF93BC016070EB01C050DF4F8BB79B01E4
:10E5300040E050E090E0A0E0B0E0DC0199278827BF
:10E54000282B392B4A2B5B2B4BBFF9012791369196
:10E550002F5F3F4F19F080E090E107C06E5F7F4F63
:10E560006C177D0719F780E090E09B013070282B35
:10E57000392BC901DF91CF910895DF92EF92FF927D
:10E580000F931F93DBB6EE24FF248701C801AA274F
:10E59000BB278BBFC7010E9452F280E091E0A0E050
:10E5A000B0E0E80EF91E0A1F1B1F90E0E91690EE7E
:10E5B000F90691E0090790E0190741F707B600FC5A
:10E5C000FDCFDBBE1F910F91FF90EF90DF9008957C
:10E5D000A6E0B0E0EEEEF2EF0C94EBF35C017A8390
:10E5E00069838A018FB77B0120E03FEFE222F322AB
:10E5F000C5C06D817E816E5F7F4F7E836D83011507
:10E60000110509F462C08D819E81E981FA818E171E
:10E610009F0718F1F50181915F01682F70E00150AB
:10E62000104031F051905F0144246429752935C0B0
:10E630008BB7960140E050E090E0A0E0B0E0DC0154
:10E6400099278827282B392B4A2B5B2B4BBFF901A5
:10E6500097908824682979294CC08BB76D817E8179
:10E660009B0140E050E090E0A0E0B0E0DC019927A1
:10E670008827282B392B4A2B5B2B4BBFF90127917D
:10E68000622F70E089819A81C816D90649F4F50194
:10E6900031905F012224622973290150104029C062
:10E6A0008BB7960140E050E090E0A0E0B0E0DC01E4
:10E6B00099278827282B392B4A2B5B2B4BBFF90135
:10E6C000779066246629772914C08BB76D817E8187
:10E6D0009B0140E050E090E0A0E0B0E0DC01992731
:10E6E0008827282B392B4A2B5B2B4BBFF9016791CD
:10E6F00076918D819E810E9433F282E090E0C80E77
:10E70000D91EED81FE812B813C81E217F30709F0D0
:10E7100070CFB7016070C12CF1E0DF2EC60ED71E9E
:10E720008BB79B0140E050E090E0A0E0B0E0DC015E
:10E7300099278827282B392B4A2B5B2B4BBFF901B4
:10E74000279136912F5F3F4F19F080E090E107C08D
:10E750006E5F7F4F6C157D0519F780E090E070705B
:10E76000682B792B672B19F0C7010E9452F2C70161
:10E770000E9442F2E0E0F1E0EE0EFF1E01151105ED
:10E7800061F067010894C11CD11CFE82ED829701E3
:10E7900022503F4F3C832B8332CF81E1809357003F
:10E7A000E89507B600FCFDCF2696E2E10C9407F44D
:10E7B000A1E0B0E0EEEDF3EF0C94FBF39C01698374
:10E7C000CE010196B90141E050E00E94E8F22196A5
:10E7D000E2E00C9417F42F923F924F925F926F9267
:10E7E0007F928F929F92AF92BF92CF92DF92EF92E1
:10E7F000FF920F931F93CF93DF93CDB7DEB7CA1B62
:10E80000DB0B0FB6F894DEBF0FBECDBF09942A888C
:10E81000398848885F846E847D848C849B84AA8434
:10E82000B984C884DF80EE80FD800C811B81AA81C1
:10E83000B981CE0FD11D0FB6F894DEBF0FBECDBF8C
:08E84000ED010895F894FFCFEB
:02E8480090013D
:040000031000E00009
:00000001FF
